:0400000080312E28F5
:100008007E14803120007F08F9008B1A0B1D102800
:1000180081314C21803129280B1F29282100111EEC
:100028001E282000111E1E2861088A0060080A0088
:10003800803129282100911E29282000911E292875
:100048005F088A005E080A00803179082000FF00F6
:100058007E1009008031302870308400003085001F
:1000680008308131532180312030840000308500F0
:100078003C30813153218031A0308400003085002C
:1000880032308131532180312030840001308500A5
:100098004030813153217E102000813138292100E0
:1000A8009112DB30FA000030FB008131652180318C
:1000B80021001112A430FA000030FB0081315F21C9
:1000C800083023009F0090309D0024309E00A0300F
:1000D8009B0001309C00F301F20132302000E40063
:1000E8006408E200F101F001F60121009116080010
:1000F800770803198B280130F80078082000DA0700
:100108000A305A02031C8B28DA01DB01DB0A760865
:10011800031999280130F8007808F407323074027E
:10012800031C9928F401F501F50A20005C085D0418
:10013800031908005D088A005C080A00803108007D
:100148003230200062020318BE287208A03E8600E2
:100158008701010823009A000130F8007808F207A7
:10016800323072020318F2010130F80078082000DA
:10017800E2070800210011120800043022008C0058
:100188008D018E013B3021008C00F0308D008E01F6
:1001980023008E018D0113308C0024008D018C0109
:1001A8008E012100951722009D019E010800230061
:1001B8009D1CE0281D121D161908F8007108203E24
:1001C80086008701780881000130F8007808F10777
:1001D800323071020318F1010130F8007808F6078F
:1001E800080021001508C03917389500F0302000A4
:1001F8009500F030E4006408E3000B118B166F30B3
:10020800FA000130FB00813159210800A530200097
:100218002006031D08005A302106031D0800220885
:100228007606031D08008131292108008031C1208C
:10023800813181314521813181316B218131803199
:10024800F5208131803153200800003020000D1A3C
:100258000130FB000D0E890C890C01390907FA00E1
:100268007A08FB047B08080081311A2181318B1739
:100278000B17750803193D2981310A218131F501D0
:100288003D297A3021009900980122009601080042
:100298000B1120006308950080317C200800640061
:1002A80080010131890B542900347B082000DD00CE
:1002B8007A08DC0008007B082000E1007A08E000EA
:1002C80008007B082000DF007A08DE0008001630EE
:0802D800210097000800080056
:020000040001F9
:04000E00E4FFFFFF0D
:00000001FF
