:0400000080312728FC
:100008007E14803120007F08F1008B1A0B1D102808
:100018008231C122803122280B1F22282100111A87
:100028002000111A22282100911E22282000911E4A
:10003800222856088A0055080A00803171082000D5
:10004800FF007E10090080312928AB3084008230FF
:1000580085004B3086000030870008308231C82286
:100068008031F701F801F901FA01203084000030ED
:1000780085001E308231CE228031A03084000030CD
:10008800850040308231CE2280312030840001301A
:1000980085004B308231CE227E1020008231502ADA
:1000A800F40108307402031808007408303E860012
:1000B800870174084B3E8400850100080106031D72
:1000C800B928D7287408F2000230F235FF3E031D24
:1000D80069287235A03E860087017435203E840069
:1000E8008501403F803F413F813FCB287408F200A3
:1000F8000230F235FF3E031D7D287235023EA03ED8
:10010800860087017435203E84008501403F803F8A
:10011800413F813FCB287408F2000230F235FF3EA0
:10012800031D92287235043EA03E8600870174356F
:10013800203E84008501403F803F413F813FCB28DE
:100148007408F2000230F235FF3E031DA72872350D
:10015800063EA03E860087017435203E8400850156
:10016800403F803F413F813FCB287408303E8600A6
:1001780087010108003A03196628013A03197A2809
:10018800033A03198F28013A0319A428CB287408C5
:10019800303E860087010108F20074084B3E860055
:1001A8008701720881007435203E8600870101307E
:1001B800810241310030813B7F3116000104031D6B
:1001C8001C297408303E860087010118F828013080
:1001D800F200740AF028F235890BEF287208F30050
:1001E800730822008E040B297408303E86008701AC
:1001F800011C0B290130F200740A0329F235890B1E
:1002080002297208FF3AF300730822008E050130B4
:10021800F2007408303E86008701720881070430B6
:100228000102031C1C297408303E860087018101E5
:100238000130F2007208F4075528F201F301083082
:10024800730203180800F4010430740203188D299E
:100258007208053E203E8600013087000108200014
:10026800BE00BF017308C0000330C035890B3929AF
:10027800A0304007C10074354107C200420886001B
:1002880087013E08C03F3F08C13F7208063E203E36
:100298008600013087000108BE00BF017308C00056
:1002A8000330C035890B5529A0304007C10074358B
:1002B8004107C200420886008701403FC300413F12
:1002C800C4004308C400C3013E084304C6003F08F5
:1002D8004404C7007308C8000330C835890B712966
:1002E800A0304807C90074354907CA004A08860083
:1002F80087014608C03F4708C13F0230BE003E089C
:10030800F2070130BE003E08F40704307402031CF3
:100318002C2901302000BE003E08F30723297A0863
:100328000319A2290130F00070082000BB070A3029
:100338003B02031CA229BB01F901F90A7808200035
:100348003A060319AD297808F0007008BA00BC0114
:10035800C12978080319C1290130F0007008BC07C9
:1003680014303C02031CC129BC017808F000700855
:10037800F700BA01F801BD01BD0A53085404031976
:10038800080054088A0053080A0081310800A53083
:1003980022002006031D08005A302106031D08000C
:1003A8007708FB3EF500FF3003180030F6002208FE
:1003B80075067604031D080082319C2281312200D3
:1003C8002406031D08001C302306031DEE29813175
:1003D800F62108001D3022002306031D0800823183
:1003E800BA220800FA0122000C15F4010830740240
:1003F800031808007408303E860087018101033025
:10040800F20074084B3E86008701720881000130B3
:10041800F200740A102AF235890B0F2A7208FF3A83
:10042800F30073088E050130F2007208F407FA2908
:10043800043022008C008D018E013B3021008C009D
:10044800F0308D008E0123008E018D0112308C005A
:1004580024008D0101308C008E01210095132200AB
:100468009D019E010800210091127A30F2000230AD
:10047800F3008231DA2221001112083023009F0094
:1004880090309D0024309E00A0309B0001309C00DD
:10049800F80121009116080082318D2282318B17D4
:1004A8000B1720003D0803195D2ABD018131CB21BE
:1004B800823179080319552A803154208231F90193
:1004C800552A21001508C03917389500F03020004A
:1004D8009500F030F4007408D7000B118B16E43047
:1004E800F2000230F3008231D422080023009D1C60
:1004F8007F2A1D121D161908F0007808203E860074
:1005080001308700700881000130F0007008F8079A
:10051800080082311C2282318231B3228231823139
:10052800E02282318231652282318231372208000D
:10053800003020000D1A0130F3000D0E890C890CD3
:1005480001390907F2007208F3047308080003343C
:1005580003340334033403340334033403347A3068
:10056800210099009801220096010800813121217B
:1005780022000C11FA01FA0A08000B112000570892
:100588009500813193210800FE0012001E00FE0B29
:10059800C92A0034640080010131890BCF2A003454
:1005A80073082000D4007208D300080073082000E4
:1005B800D6007208D5000800163021009700080000
:0205C800080029
:020000040001F9
:04000E00E4FFFFFF0D
:00000001FF
