:0400000080312E28F5
:100008007E14803120007F08FA008B1A0B1D1028FF
:100018008031EE20803129280B1F29282100111E4C
:100028001E282000111E1E2833088A0032080A00E4
:10003800803129282100911E29282000911E292875
:1000480031088A0030080A0080317A082000FF0051
:100058007E10090080313028F001F101F201F3012E
:10006800F401203084000030850010308031F52004
:100078007E1020008031FB28210091129F30200043
:10008800B4000030B50081310D21803121001112FA
:100098006A302000B4000030B500813107210830F3
:1000A80023009F0090309D0024309E00A0309B00CC
:1000B80001309C00F401F3010830FB007B08F700D5
:1000C800F201F101F00121009116080008307702D1
:1000D800031882287308283E860087010108230038
:1000E8009A000130F9007908F30708307302031801
:1000F800F3010130F9007908F7070800210011120F
:100108000800043022008C008D018E013B30210054
:100118008C00F0308D008E0123008E018D0113308C
:100128008C0024008D018C018E012100951722007E
:100138009D019E01080023009D1CA4281D121D1668
:100148001908F9007208203E8600870179088100A5
:100158000130F9007908F207083072020318F20139
:100168000130F9007908F007080021001508C039A6
:1001780017389500F03020009500F030FB007B0820
:10018800F8000B118B161730B4000130B50081311F
:10019800012108008031852080318031E7208031BD
:1001A8008131132180318031B92080318031402064
:1001B8000800750876040319080076088A0075088F
:1001C8000A00803108007A30210099009801220045
:1001D800960108000B117808200095008031DD2079
:1001E8000800640080010131890BF6280034803151
:1001F800CE2080318B170B17002920003508F60018
:100208003408F500080020003508B3003408B200AF
:10021800080020003508B1003408B0000800163086
:08022800210097000800080006
:020000040001F9
:04000E00E4FFFFFF0D
:00000001FF
