:0400000080312728FC
:100008007E14803120007F08F1008B1A0B1D102808
:1000180083314F23803122280B1F22282100111AF7
:100028002000111A22282100911E22282000911E4A
:1000380022285F088A005E080A00803171082000C3
:10004800FF007E1009008031292838308400833071
:1000580085005430860000308700083083315623ED
:100068008031F701F801F901FA01203084000030ED
:100078008500273083315C238031A0308400003034
:100088008500403083315C2380312030840001308A
:1000980085004B3083315C237E1020008231952A05
:1000A800F40108307402031808007408383E86000A
:1000B80087017408543E8400850100080106031D69
:1000C800B928D7287408F2000230F235FF3E031D24
:1000D80069287235A03E860087017435203E840069
:1000E8008501403F803F413F813FCB287408F200A3
:1000F8000230F235FF3E031D7D287235023EA03ED8
:10010800860087017435203E84008501403F803F8A
:10011800413F813FCB287408F2000230F235FF3EA0
:10012800031D92287235043EA03E8600870174356F
:10013800203E84008501403F803F413F813FCB28DE
:100148007408F2000230F235FF3E031DA72872350D
:10015800063EA03E860087017435203E8400850156
:10016800403F803F413F813FCB287408383E86009E
:1001780087010108003A03196628013A03197A2809
:10018800033A03198F28013A0319A428CB287408C5
:10019800383E860087010108F2007408543E860044
:1001A8008701720881007435203E8600870101307E
:1001B800810241310030813B7F3116000104031D6B
:1001C8001F297408383E860087010118F828013075
:1001D800F200740AF028F235890BEF287208F30050
:1001E800730822008E040B297408383E86008701A4
:1001F800011C0B290130F200740A0329F235890B1E
:1002080002297208FF3AF300730822008E050130B4
:10021800F2007408383E86008701720881070430AE
:100228000102031C1F290330F2007408383E8600BF
:100238008701720881000130F2007208F40755281E
:10024800F201F3010830730203180800F4010430C6
:100258007402031890297208053E203E860001307A
:10026800870001082000C700C8017308C9000330CF
:10027800C935890B3C29A0304907CA0074354A079B
:10028800CB004B08860087014708C03F4808C13F9C
:100298007208063E203E8600013087000108C7002C
:1002A800C8017308C9000330C935890B5829A03023
:1002B8004907CA0074354A07CB004B0886008701F6
:1002C800403FCC00413FCD004C08CD00CC01470851
:1002D8004C04CF0048084D04D0007308D100033007
:1002E800D135890B7429A0305107D20074355207D3
:1002F800D3005308860087014F08C03F5008C13F0C
:100308000230C7004708F2070130C7004708F40762
:1003180004307402031C2F2901302000C70047084D
:10032800F3072629A53022002006031D08005A30AD
:100338002106031D08007708FB3EF500FF3003186F
:100348000030F600220875067604031D0800833184
:100358002923813122002406031D08001C302306AE
:10036800031DB9298231402208001D3022002306CE
:10037800031DC129833140230800213022002302B4
:10038800031CCF29293023020318CF292308E03E74
:1003980082310F2208004E3022002306031D080078
:1003A80082316B2208007A080319E6290130F0002F
:1003B80070082000C4070A304402031CE629C4015F
:1003C800F901F90A7808200043060319F129780889
:1003D800F0007008C300C501052A78080319052A2A
:1003E8000130F0007008C50702304502031C052AD9
:1003F800C5017808F0007008F700C301F801C601CC
:10040800C60A5C085D04031908005D088A005C08D8
:100418000A0082310800F4000130F2007408FF3E3F
:10042800303E86008701720881067408FF3E303E20
:100438008600870101080319302A0130F200740888
:10044800FF3E890A282AF235890B272A7208F30009
:10045800730822008E0408000130F2007408FF3E81
:10046800890A372AF235890B362A7208FF3AF300CF
:10047800730822008E050800FA0122000C15F40109
:1004880008307402031808007408383E8600870193
:1004980081017408303E8600870181010330F20033
:1004A8007408543E86008701720881000130F2000A
:1004B800740A5F2AF235890B5E2A7208FF3AF30044
:1004C80073088E050130F2007208F407442AFA0115
:1004D80022000C11F4010830740203180800740893
:1004E800383E8600870181017408303E8600870106
:1004F80081010330F2007408543E860087017208B7
:1005080081000130F200740A8A2AF235890B892A9F
:100518007208F30073088E040130F2007208F407C1
:100528006F2A83311A2382318B170B172000460854
:100538000319A22AC601813196218231790803194B
:100548009A2A20000C18B22A7A03031DB22A220024
:100558000C11803154208231F9019A2A0C1C9A2AF4
:100568007A03031D9A2A823140228231FA01FA0A5B
:100578009A2A043022008C008D018E013B30210024
:100588008C00F0308D008E0123008E018D01123019
:100598008C00503024008D0001308C008E01210029
:1005A800951322009D019E01080021009112073039
:1005B800F2000330F3008331682321001112083060
:1005C80023009F0090309D0024309E00A0309B00A7
:1005D80001309C00F801210091160800210015083F
:1005E800C039143895008330200095008330F4001A
:1005F8007408E0000B118B167230F2000330F30020
:1006080083316223080023009D1C0C2B1D121D162C
:100618001908F0007808203E86000130870070082D
:1006280081000130F0007008F80708008231BD220F
:10063800833183314823833183316E23833182317F
:10064800F22283318231D9220800003020000D1AAD
:100658000130F3000D0E890C890C01390907F200ED
:100668007208F304730808000334033403340334B2
:100678000334033403340334813124218331823138
:100688004022FA01FA0A08007A30210099009801FC
:100698002200960108000B112000600895008131A6
:1006A800D7210800FE0012001E00FE0B572B003455
:1006B800640080010131890B5D2B00347308200030
:1006C800DD007208DC00080073082000DF007208F3
:0E06D800DE0008001630210097000800080020
:020000040001F9
:04000E00E4FFFFFF0D
:00000001FF
