:0400000080312728FC
:100008007E14803120007F08F1008B1A0B1D102808
:100018008331B323803122280B1F22282100111A93
:100028002000111A22282100911E22282000911E4A
:10003800222860088A005F080A00803171082000C1
:10004800FF007E100900803129289C30840083300D
:100058008500543086000030870009308331BA2388
:100068008031F701F801F901FA01203084000030ED
:10007800850025308331C0238031A03084000030D2
:10008800850040308331C023803120308400013026
:1000980085004B308331C0237E1020008331032B31
:1000A800F40108307402031808007408303E860012
:1000B80087017408543E8400850100080106031D69
:1000C800B928D7287408F2000230F235FF3E031D24
:1000D80069287235A03E860087017435203E840069
:1000E8008501403F803F413F813FCB287408F200A3
:1000F8000230F235FF3E031D7D287235023EA03ED8
:10010800860087017435203E84008501403F803F8A
:10011800413F813FCB287408F2000230F235FF3EA0
:10012800031D92287235043EA03E8600870174356F
:10013800203E84008501403F803F413F813FCB28DE
:100148007408F2000230F235FF3E031DA72872350D
:10015800063EA03E860087017435203E8400850156
:10016800403F803F413F813FCB287408303E8600A6
:1001780087010108003A03196628013A03197A2809
:10018800033A03198F28013A0319A428CB287408C5
:10019800303E860087010108F2007408543E86004C
:1001A8008701720881007435203E8600870101307E
:1001B800810241310030813B7F3116000104031D6B
:1001C8001C297408303E860087010118F828013080
:1001D800F200740AF028F235890BEF287208F30050
:1001E800730822008E040B297408303E86008701AC
:1001F800011C0B290130F200740A0329F235890B1E
:1002080002297208FF3AF300730822008E050130B4
:10021800F2007408303E86008701720881070430B6
:100228000102031C1C297408303E860087018101E5
:100238000130F2007208F4075528F2007208200015
:10024800C5004508BC00F301043073020318912966
:100258007335053E203E8600013087000108C50041
:10026800C6017208C7000330C735890B3829F83032
:100278004707C800A0304807C90073354907CA00B6
:100288004A08860087014508C03F4608C13F7335C4
:10029800063E203E8600013087000108C500C601E1
:1002A8007208C7000330C735890B5729F83047074C
:1002B800C800A0304807C90073354907CA004A0872
:1002C80086008701403FCB00413FCC004B08CC0063
:1002D800CB0145084B04CE0046084C04CF007208F9
:1002E800D0000330D035890B7629F8305007D1007B
:1002F800A0305107D20073355207D3005308860047
:1003080087014E08C03F4F08C13F0130C50045086E
:10031800F30704307302031C2C29C401C40A080023
:10032800F201F3010830730203180800F4010430E5
:1003380074020318002A7208053E203E8600013028
:10034800870001082000C500C6017308C7000330F4
:10035800C735890BAC29A0304707C8007435480752
:10036800C9004908860087014508C03F4608C13FC3
:100378007208063E203E8600013087000108C5004D
:10038800C6017308C7000330C735890BC829A030D8
:100398004707C80074354807C9004908860087011F
:1003A800403FCA00413FCB004A08CB00CA0145087C
:1003B8004A04CD0046084B04CE007308CF00033032
:1003C800CF35890BE429A0304F07D000743550078A
:1003D800D1005108860087014D08C03F4E08C13F33
:1003E8000230C5004508F2070130C5004508F4078A
:1003F80004307402031C9F2901302000C500450801
:10040800F3079629F600770820005C060319262AC8
:100418007608F2000330F235890B0F2AF83072079C
:10042800F300A0307307F40077357407F5007508FA
:1004380086008701403FB800413FB9007708F200C5
:100448007208DC000130B8020030B93B38083904C2
:10045800031D080077183F2A0130F2007608FF3E96
:10046800890A372AF235890B362A7208F30073088D
:1004780022008E04502A771C502A0130F200760898
:10048800FF3E890A482AF235890B472A7208FF3A43
:10049800F300730822008E050130F2007208F70796
:1004A80004307702031C0800F7012000C40108008B
:1004B8007A0803196B2A0130F00070082000BF0782
:1004C8000A303F02031C6B2ABF01F901F90A200018
:1004D800440803197A2A0130F0007008BD070A3071
:1004E8003D02031C7A2ABD01C301C30A78083E06EF
:1004F8000319842A7808F0007008BE00C001982A01
:1005080078080319982A0130F0007008C0071430E1
:100518004002031C982AC0017808F0007008C20045
:10052800BE01F801C101C10A5D085E040319080093
:100538005E088A005D080A0082310800A5302200A2
:100548002006031D08005A302106031D080020005C
:100558004208FB3EF500FF3003180030F600220089
:10056800220875067604031D080083318D23823125
:1005780022002406031D08001C302306031DC72A79
:100588008231DD2208001D3022002306031DCF2AF8
:100598008331AC230800213022002302031C080009
:1005A80029302302031808002308E03E8131212165
:1005B8000800FA0122000C15F4010830740203182F
:1005C80008007408303E8600870181010330F2007C
:1005D8007408543E86008701720881000130F200D9
:1005E800740AF72AF235890BF62A7208FF3AF300E3
:1005F80073088E050130F2007208F407E12A83318E
:100608007E2383318B170B17200041080319102B09
:10061800C1018231A222833179080319172B803155
:1006280054208331F901200043080319082B3C08A2
:100638008231062283312000C301082B04302200B6
:100648008C008D018E013B3021008C00F0308D0034
:100658008E0123008E018D0112308C0024008D0143
:1006680001308C008E012100951322009D019E010E
:100678000800210091126B30F2000330F30083313F
:10068800CC2321001112083023009F0090309D00D8
:1006980024309E00A0309B0001309C00F80121000E
:1006A8009116080021001508C039143895008330C8
:1006B800200095008330F4007408E1000B118B16BC
:1006C800D630F2000330F3008331C623080023003C
:1006D8009D1C702B1D121D161908F0007808203E6D
:1006E800860001308700700881000130F000700832
:1006F800F80708008331222383318331A52383310E
:100708008331D223833183315623833183313D238F
:100718000800003020000D1A0130F3000D0E890C7E
:10072800890C01390907F2007208F30473080800FC
:1007380003340334033403340334033403340334F9
:1007480003347A30210099009801220096010800AC
:100758008131942122000C11FA01FA0A08000B11C8
:1007680020006108950082315C220800FE0012001A
:100778001E00FE0BBB2B0034640080010131890B85
:10078800C12B003473082000DE007208DD00080069
:1007980073082000E0007208DF000800163021000E
:0607A800970008000800A4
:020000040001F9
:04000E00E4FFFFFF0D
:00000001FF
