:0400000080312728FC
:100008007E14803120007F08F1008B1A0B1D102808
:1000180083319223803122280B1F22282100111AB4
:100028002000111A22282100911E22282000911E4A
:10003800222862088A0061080A00803171082000BD
:10004800FF007E100900803129288331B5238031D3
:10005800FA007B30840083308500573086000030FA
:1000680087000830833199238031F701F801F901BD
:1000780020308400003085002A3083319F2380316E
:10008800A030840000308500403083319F238031C8
:1000980020308400013085004B3083319F237E104F
:1000A80020008131F029F401083074020318080097
:1000B8007408383E860087017408573E840085011D
:1000C80000080106031DBC28DA287408F200023073
:1000D800F235FF3E031D6C287235A03E860087016D
:1000E8007435203E84008501403F803F413F813F79
:1000F800CE287408F2000230F235FF3E031D802836
:100108007235023EA03E860087017435203E840089
:100118008501403F803F413F813FCE287408F2006F
:100128000230F235FF3E031D95287235043EA03E8D
:10013800860087017435203E84008501403F803F5A
:10014800413F813FCE287408F2000230F235FF3E6D
:10015800031DAA287235063EA03E86008701743525
:10016800203E84008501403F803F413F813FCE28AB
:100178007408383E860087010108003A0319692887
:10018800013A03197D28033A03199228013A031901
:10019800A728CE287408383E860087010108F20097
:1001A8007408573E86008701720881007435203E26
:1001B800860087010130810241310030813B7F3167
:1001C80016000104031D29297408383E860087019A
:1001D8000118FB280130F200740AF328F235890B64
:1001E800F2287208F300730822008E040E2974089E
:1001F800383E86008701011C0E290130F200740A7E
:100208000629F235890B05297208FF3AF3007308AD
:1002180022008E050130F2007408383E86008701FE
:100228007208810704300102031C29290330F200F7
:100238007408383E860087017208810041307A06CA
:10024800031D29292000C201C20A0130F2007208E8
:10025800F4075828F201F301083073020318080064
:10026800F4010430740203189A297208053E203EEE
:1002780086000130870001082000CA00CB017308FE
:10028800CC000330CC35890B4629A0304C07CD0073
:1002980074354D07CE004E08860087014A08C03FD6
:1002A8004B08C13F7208063E203E86000130870099
:1002B8000108CA00CB017308CC000330CC35890B88
:1002C8006229A0304C07CD0074354D07CE004E088A
:1002D80086008701403FCF00413FD0004F08D00043
:1002E800CF014A084F04D2004B085004D3007308CA
:1002F800D4000330D435890B7E29A0305407D500AB
:1003080074355507D6005608860087015208C03F45
:100318005308C13F0230CA004A08F2070130CA0038
:100328004A08F40704307402031C392901302000FC
:10033800CA004A08F3073029A53022002006031D09
:1003480008005A302106031D080020004808FB3E1B
:10035800F500FF3003180030F60022002208750669
:100368007604031D080083316C23813122002406A2
:10037800031DE6291C302306031DC6298231A72246
:100388008131E6291D3022002306031DCF29833140
:1003980083238131E629213022002302031CDE2930
:1003A800293023020318DE292308E03E8231762211
:1003B8008131E6294E3022002306031DE6298231C9
:1003C800D42281311F3022002306031D080024088F
:1003D800F5007508FA00080083315D2381318B1719
:1003E8000B1741307A06031D092A20004208031919
:1003F800152A03100C1C0314003003180130F700F1
:1004080077080319152AC201152A42307A06031DF6
:10041800152A031020000C1C0314003003180130A7
:10042800F7002000470803191D2AC7018131A021C0
:100438008131200049080319F529770803192F2A63
:100448007903031D2F2A22000C1180315720813196
:100458002000C901F5297708031DF5297903031D33
:10046800F5298231A7228131F901F90A2000C20158
:10047800C20AF529790803194D2A0130F0007008DD
:100488002000C5070A304502031C4D2AC501C901D1
:10049800C90A7808200044060319582A7808F00089
:1004A8007008C400C6016C2A780803196C2A013048
:1004B800F0007008C60702304602031C6C2AC60109
:1004C8007808F0007008C800C401F801C701C70A1D
:1004D8005F0860040319080060088A005F080A00C2
:1004E80082310800F4000130F2007408FF3E303E0B
:1004F80086008701720881067408FF3E303E860038
:10050800870101080319972A0130F2007408FF3E99
:10051800890A8F2AF235890B8E2A7208F30073082C
:1005280022008E0408000130F2007408FF3E890A98
:100538009E2AF235890B9D2A7208FF3AF300730848
:1005480022008E050800F9012000C20122000C15C6
:10055800F40108307402031808007408383E860055
:10056800870181017408303E8600870181010330CC
:10057800F2007408573E8600870172088100013036
:10058800F200740AC82AF235890BC72A7208FF3AA2
:10059800F30073088E050130F2007208F407AD2AE3
:1005A800F9012000C20122000C11F4010830740284
:1005B800031808007408383E860087018101740812
:1005C800303E8600870181010330F2007408573EEF
:1005D80086008701720881000130F200740AF52A4A
:1005E800F235890BF42A7208F30073088E0401307F
:1005F800F2007208F407DA2A043022008C008D0118
:100608008E013B3021008C00F0308D008E012300DC
:100618008E018D0112308C00503024008D00013085
:100628008C008E012100951322009D019E01080077
:10063800210091124A30F2000330F3008331AB23DA
:1006480021001112083023009F0090309D002430B3
:100658009E00A0309B0001309C00F80121009116FB
:10066800080021001508C03914389500833020008F
:1006780095008330F4007408E3000B118B16B63034
:10068800F2000330F3008331A523080023009D1CEA
:100698004F2B1D121D161908F0007808203E860001
:1006A80001308700700881000130F0007008F807F9
:1006B800080083310023833183318B2383318331D5
:1006C800B123833183313523833183311C230800DF
:1006D800003020000D1A0130F3000D0E890C890C32
:1006E80001390907F2007208F3047308080003349B
:1006F80003340334033403340334033403348131BF
:100708002E2183318231A722F901F90A08007A30B3
:100718002100990098012200960108000B11200081
:100728006308950082313E220800FE0012001E0078
:10073800FE0B9A2B0034640080010131890BA02B39
:10074800003473082000E0007208DF000800730816
:100758002000E2007208E10008001630210097002E
:0607680008004134080006
:020000040001F9
:04000E00E4FFFFFF0D
:00000001FF
