:0400000080312728FC
:100008007E14803120007F08F1008B1A0B1D102808
:1000180083319123803122280B1F22282100111AB5
:100028002000111A22282100911E22282000911E4A
:10003800222862088A0061080A00803171082000BD
:10004800FF007E100900803129288331B4238031D4
:10005800FA007A30840083308500573086000030FB
:1000680087000830833198238031F701F801F901BE
:1000780020308400003085002A3083319E2380316F
:10008800A030840000308500403083319E238031C9
:1000980020308400013085004B3083319E237E1050
:1000A80020008131F029F401083074020318080097
:1000B8007408383E860087017408573E840085011D
:1000C80000080106031DBC28DA287408F200023073
:1000D800F235FF3E031D6C287235A03E860087016D
:1000E8007435203E84008501403F803F413F813F79
:1000F800CE287408F2000230F235FF3E031D802836
:100108007235023EA03E860087017435203E840089
:100118008501403F803F413F813FCE287408F2006F
:100128000230F235FF3E031D95287235043EA03E8D
:10013800860087017435203E84008501403F803F5A
:10014800413F813FCE287408F2000230F235FF3E6D
:10015800031DAA287235063EA03E86008701743525
:10016800203E84008501403F803F413F813FCE28AB
:100178007408383E860087010108003A0319692887
:10018800013A03197D28033A03199228013A031901
:10019800A728CE287408383E860087010108F20097
:1001A8007408573E86008701720881007435203E26
:1001B800860087010130810241310030813B7F3167
:1001C80016000104031D29297408383E860087019A
:1001D8000118FB280130F200740AF328F235890B64
:1001E800F2287208F300730822008E040E2974089E
:1001F800383E86008701011C0E290130F200740A7E
:100208000629F235890B05297208FF3AF3007308AD
:1002180022008E050130F2007408383E86008701FE
:100228007208810704300102031C29290330F200F7
:100238007408383E860087017208810042307A06C9
:10024800031D29292000C201C20A0130F2007208E8
:10025800F4075828F201F301083073020318080064
:10026800F4010430740203189A297208053E203EEE
:1002780086000130870001082000CA00CB017308FE
:10028800CC000330CC35890B4629A0304C07CD0073
:1002980074354D07CE004E08860087014A08C03FD6
:1002A8004B08C13F7208063E203E86000130870099
:1002B8000108CA00CB017308CC000330CC35890B88
:1002C8006229A0304C07CD0074354D07CE004E088A
:1002D80086008701403FCF00413FD0004F08D00043
:1002E800CF014A084F04D2004B085004D3007308CA
:1002F800D4000330D435890B7E29A0305407D500AB
:1003080074355507D6005608860087015208C03F45
:100318005308C13F0230CA004A08F2070130CA0038
:100328004A08F40704307402031C392901302000FC
:10033800CA004A08F3073029A53022002006031D09
:1003480008005A302106031D080020004808FB3E1B
:10035800F500FF3003180030F60022002208750669
:100368007604031D080083316B23813122002406A3
:10037800031DE6291C302306031DC6298231A62247
:100388008131E6291D3022002306031DCF29833140
:1003980082238131E629213022002302031CDE2931
:1003A800293023020318DE292308E03E8231752212
:1003B8008131E6294E3022002306031DE6298231C9
:1003C800D32281311F3022002306031D0800240890
:1003D800F5007508FA00080083315C2381318B171A
:1003E8000B1741307A06031D022A031020000C1C4B
:1003F8000314003003180130F700142A42307A063B
:10040800031D142A200042080319142A03100C1C87
:100418000314003003180130F7007708031DC201E8
:100428002000470803191C2AC7018131A021813106
:10043800200049080319F529770803192E2A79039A
:10044800031D2E2A22000C118031572081312000F3
:10045800C901F5297708031DF5297903031DF52935
:100468008231A6228131F901F90A2000C201C20AAB
:10047800F529790803194C2A0130F000700820008A
:10048800C5070A304502031C4C2AC501C901C90A1F
:100498007808200044060319572A7808F0007008E5
:1004A800C400C6016B2A780803196B2A0130F000D2
:1004B8007008C60702304602031C6B2AC60178087A
:1004C800F0007008C800C401F801C701C70A5F0836
:1004D80060040319080060088A005F080A00823176
:1004E8000800F4000130F2007408FF3E303E860038
:1004F8008701720881067408FF3E303E8600870136
:1005080001080319962A0130F2007408FF3E890A8F
:100518008E2AF235890B8D2A7208F300730822009F
:100528008E0408000130F2007408FF3E890A9D2AF3
:10053800F235890B9C2A7208FF3AF30073082200EF
:100548008E050800F9012000C20122000C15F401F3
:1005580008307402031808007408383E86008701C2
:1005680081017408303E8600870181010330F20062
:100578007408573E86008701720881000130F20036
:10058800740AC72AF235890BC62A7208FF3AF300A3
:1005980073088E050130F2007208F407AC2AF901DD
:1005A8002000C20122000C11F40108307402031863
:1005B80008007408383E8600870181017408303EBF
:1005C8008600870181010330F2007408573E8600D7
:1005D8008701720881000130F200740AF42AF235AA
:1005E800890BF32A7208F30073088E040130F200B5
:1005F8007208F407D92A043022008C008D018E017C
:100608003B3021008C00F0308D008E0123008E01DC
:100618008D0112308C00503024008D0001308C0088
:100628008E012100951322009D019E0108002100E2
:1006380091124930F2000330F3008331AA232100DC
:100648001112083023009F0090309D0024309E0036
:10065800A0309B0001309C00F80121009116080091
:1006680021001508C0391438950083302000950002
:100678008330F4007408E3000B118B16B530F200D8
:100688000330F3008331A423080023009D1C4E2B64
:100698001D121D161908F0007808203E860001304A
:1006A8008700700881000130F0007008F807080022
:1006B8008231FF22833183318A2383318331B0230E
:1006C800833183313423833183311B230800003085
:1006D80020000D1A0130F3000D0E890C890C013928
:1006E8000907F2007208F30473080800033403349E
:1006F80003340334033403340334033481312E21A7
:1007080083318231A622F901F90A08007A302100E2
:10071800990098012200960108000B112000630837
:10072800950082313D220800FE0012001E00FE0BDB
:10073800992B0034640080010131890B9F2B003410
:1007480073082000E0007208DF000800730820002A
:10075800E2007208E1000800163021009700080046
:040768004134080010
:020000040001F9
:04000E00E4FFFFFF0D
:00000001FF
